{"project/contracts/PepperSupplyChain.sol":{"PepperSupplyChain":{"abi":[{"inputs":[],"stateMutability":"nonpayable","type":"constructor"},{"anonymous":false,"inputs":[{"indexed":true,"internalType":"address","name":"actor","type":"address"},{"indexed":true,"internalType":"uint256","name":"lotId","type":"uint256"},{"indexed":false,"internalType":"enum PepperSupplyChain.Action","name":"action","type":"uint8"}],"name":"AuditLog","type":"event"},{"anonymous":false,"inputs":[{"indexed":false,"internalType":"bytes32","name":"farmId","type":"bytes32"}],"name":"FarmCertified","type":"event"},{"anonymous":false,"inputs":[{"indexed":true,"internalType":"uint256","name":"lotId","type":"uint256"},{"indexed":true,"internalType":"address","name":"farmer","type":"address"}],"name":"LotCreated","type":"event"},{"anonymous":false,"inputs":[{"indexed":false,"internalType":"uint256","name":"lotId","type":"uint256"}],"name":"LotFlagged","type":"event"},{"anonymous":false,"inputs":[{"indexed":false,"internalType":"uint256","name":"newLot","type":"uint256"}],"name":"LotMerged","type":"event"},{"anonymous":false,"inputs":[{"indexed":false,"internalType":"uint256","name":"lotId","type":"uint256"}],"name":"LotRecalled","type":"event"},{"anonymous":false,"inputs":[{"indexed":true,"internalType":"uint256","name":"lotId","type":"uint256"},{"indexed":true,"internalType":"address","name":"from","type":"address"},{"indexed":true,"internalType":"address","name":"to","type":"address"}],"name":"OwnershipTransferred","type":"event"},{"anonymous":false,"inputs":[{"indexed":true,"internalType":"uint256","name":"lotId","type":"uint256"},{"indexed":false,"internalType":"uint256","name":"amount","type":"uint256"},{"indexed":false,"internalType":"address","name":"receiver","type":"address"}],"name":"PaymentReleased","type":"event"},{"anonymous":false,"inputs":[{"indexed":false,"internalType":"string","name":"role","type":"string"},{"indexed":false,"internalType":"address","name":"user","type":"address"}],"name":"RoleGranted","type":"event"},{"anonymous":false,"inputs":[{"indexed":true,"internalType":"uint256","name":"lotId","type":"uint256"},{"indexed":false,"internalType":"enum PepperSupplyChain.Status","name":"status","type":"uint8"}],"name":"StatusChanged","type":"event"},{"inputs":[],"name":"admin","outputs":[{"internalType":"address","name":"","type":"address"}],"stateMutability":"view","type":"function"},{"inputs":[{"internalType":"uint256","name":"id","type":"uint256"}],"name":"buyLot","outputs":[],"stateMutability":"payable","type":"function"},{"inputs":[{"internalType":"address","name":"","type":"address"}],"name":"certifiers","outputs":[{"internalType":"bool","name":"","type":"bool"}],"stateMutability":"view","type":"function"},{"inputs":[{"internalType":"bytes32","name":"farmId","type":"bytes32"},{"internalType":"bytes32","name":"certHash","type":"bytes32"},{"internalType":"uint256","name":"validUntil","type":"uint256"}],"name":"certifyFarm","outputs":[],"stateMutability":"nonpayable","type":"function"},{"inputs":[{"internalType":"uint256","name":"id","type":"uint256"}],"name":"confirmReceived","outputs":[],"stateMutability":"view","type":"function"},{"inputs":[{"internalType":"uint256","name":"id","type":"uint256"},{"internalType":"bytes32","name":"farmId","type":"bytes32"},{"internalType":"uint256","name":"weight","type":"uint256"}],"name":"createLot","outputs":[],"stateMutability":"nonpayable","type":"function"},{"inputs":[{"internalType":"address","name":"","type":"address"}],"name":"distributors","outputs":[{"internalType":"bool","name":"","type":"bool"}],"stateMutability":"view","type":"function"},{"inputs":[{"internalType":"address","name":"","type":"address"}],"name":"farmers","outputs":[{"internalType":"bool","name":"","type":"bool"}],"stateMutability":"view","type":"function"},{"inputs":[{"internalType":"bytes32","name":"","type":"bytes32"}],"name":"farms","outputs":[{"internalType":"bytes32","name":"certHash","type":"bytes32"},{"internalType":"uint256","name":"validUntil","type":"uint256"},{"internalType":"bool","name":"certified","type":"bool"}],"stateMutability":"view","type":"function"},{"inputs":[{"internalType":"uint256","name":"id","type":"uint256"}],"name":"flagLot","outputs":[],"stateMutability":"nonpayable","type":"function"},{"inputs":[{"internalType":"uint256","name":"id","type":"uint256"}],"name":"getLot","outputs":[{"components":[{"internalType":"uint256","name":"id","type":"uint256"},{"internalType":"bytes32","name":"farmId","type":"bytes32"},{"internalType":"address","name":"farmer","type":"address"},{"internalType":"address","name":"owner","type":"address"},{"internalType":"uint128","name":"initialWeight","type":"uint128"},{"internalType":"uint128","name":"processedWeight","type":"uint128"},{"internalType":"uint128","name":"price","type":"uint128"},{"internalType":"uint128","name":"escrow","type":"uint128"},{"internalType":"uint64","name":"createdAt","type":"uint64"},{"internalType":"uint64","name":"updatedAt","type":"uint64"},{"internalType":"enum PepperSupplyChain.Status","name":"status","type":"uint8"},{"internalType":"bool","name":"flagged","type":"bool"},{"internalType":"bool","name":"escrowPaid","type":"bool"},{"internalType":"uint256[]","name":"sourceLots","type":"uint256[]"}],"internalType":"struct PepperSupplyChain.Lot","name":"","type":"tuple"}],"stateMutability":"view","type":"function"},{"inputs":[{"internalType":"address","name":"a","type":"address"}],"name":"grantCertifier","outputs":[],"stateMutability":"nonpayable","type":"function"},{"inputs":[{"internalType":"address","name":"a","type":"address"}],"name":"grantDistributor","outputs":[],"stateMutability":"nonpayable","type":"function"},{"inputs":[{"internalType":"address","name":"a","type":"address"}],"name":"grantFarmer","outputs":[],"stateMutability":"nonpayable","type":"function"},{"inputs":[{"internalType":"address","name":"a","type":"address"}],"name":"grantProcessor","outputs":[],"stateMutability":"nonpayable","type":"function"},{"inputs":[{"internalType":"address","name":"a","type":"address"}],"name":"grantRetailer","outputs":[],"stateMutability":"nonpayable","type":"function"},{"inputs":[{"internalType":"uint256","name":"","type":"uint256"}],"name":"lots","outputs":[{"internalType":"uint256","name":"id","type":"uint256"},{"internalType":"bytes32","name":"farmId","type":"bytes32"},{"internalType":"address","name":"farmer","type":"address"},{"internalType":"address","name":"owner","type":"address"},{"internalType":"uint128","name":"initialWeight","type":"uint128"},{"internalType":"uint128","name":"processedWeight","type":"uint128"},{"internalType":"uint128","name":"price","type":"uint128"},{"internalType":"uint128","name":"escrow","type":"uint128"},{"internalType":"uint64","name":"createdAt","type":"uint64"},{"internalType":"uint64","name":"updatedAt","type":"uint64"},{"internalType":"enum PepperSupplyChain.Status","name":"status","type":"uint8"},{"internalType":"bool","name":"flagged","type":"bool"},{"internalType":"bool","name":"escrowPaid","type":"bool"}],"stateMutability":"view","type":"function"},{"inputs":[{"internalType":"uint256","name":"id","type":"uint256"}],"name":"markShipped","outputs":[],"stateMutability":"nonpayable","type":"function"},{"inputs":[{"internalType":"uint256","name":"id","type":"uint256"}],"name":"markSold","outputs":[],"stateMutability":"nonpayable","type":"function"},{"inputs":[{"internalType":"uint256","name":"newId","type":"uint256"},{"internalType":"uint256[]","name":"source","type":"uint256[]"}],"name":"mergeLots","outputs":[],"stateMutability":"nonpayable","type":"function"},{"inputs":[{"internalType":"uint256","name":"id","type":"uint256"},{"internalType":"uint256","name":"processedWeight","type":"uint256"}],"name":"processLot","outputs":[],"stateMutability":"nonpayable","type":"function"},{"inputs":[{"internalType":"address","name":"","type":"address"}],"name":"processors","outputs":[{"internalType":"bool","name":"","type":"bool"}],"stateMutability":"view","type":"function"},{"inputs":[{"internalType":"uint256","name":"id","type":"uint256"}],"name":"recallLot","outputs":[],"stateMutability":"nonpayable","type":"function"},{"inputs":[{"internalType":"uint256","name":"id","type":"uint256"}],"name":"refundEscrow","outputs":[],"stateMutability":"nonpayable","type":"function"},{"inputs":[{"internalType":"address","name":"","type":"address"}],"name":"retailers","outputs":[{"internalType":"bool","name":"","type":"bool"}],"stateMutability":"view","type":"function"},{"inputs":[{"internalType":"address","name":"a","type":"address"}],"name":"revokeDistributor","outputs":[],"stateMutability":"nonpayable","type":"function"},{"inputs":[{"internalType":"address","name":"a","type":"address"}],"name":"revokeFarmer","outputs":[],"stateMutability":"nonpayable","type":"function"},{"inputs":[{"internalType":"address","name":"a","type":"address"}],"name":"revokeProcessor","outputs":[],"stateMutability":"nonpayable","type":"function"},{"inputs":[{"internalType":"address","name":"a","type":"address"}],"name":"revokeRetailer","outputs":[],"stateMutability":"nonpayable","type":"function"},{"inputs":[{"internalType":"uint256","name":"id","type":"uint256"},{"internalType":"uint256","name":"price","type":"uint256"}],"name":"setPrice","outputs":[],"stateMutability":"nonpayable","type":"function"},{"inputs":[{"internalType":"bytes32","name":"farmId","type":"bytes32"},{"internalType":"bytes32","name":"newHash","type":"bytes32"},{"internalType":"uint256","name":"newValid","type":"uint256"}],"name":"updateFarmCertification","outputs":[],"stateMutability":"nonpayable","type":"function"}],"evm":{"bytecode":{"linkReferences":{},"object":"608080604052346026575f80546001600160a01b03191633179055611a21908161002b8239f35b5f80fdfe6080806040526004361015610012575f80fd5b5f3560e01c90816310f908bd1461162557508063120b93d3146115d457806325c991911461154a57806327dac36d146114ff578063356f9dfd14611484578063401b2168146114435780634968441b146113c6578063514a88ab1461131a5780635d42b2b9146112d9578063603765281461124e57806363ca21d7146111c157806374e3e3dc146110c9578063782eb934146110785780637a9b62ba14610f725780638b017a2414610f215780639580973714610e96578063965e064a14610e5557806398330bb214610bcf5780639a268f3514610b8e578063ab995d12146108cc578063b233a67914610881578063c009d80b146106ab578063c208bdf814610623578063c2b0513a146105d2578063cc64278414610591578063e78623531461051f578063eed90d6b1461040e578063f1648e841461031e578063f7d97577146102cf578063f851a440146102a85763fed0abc814610171575f80fd5b3461026f57602036600319011261026f57600435335f52600460205260ff60405f20541615610273576101a38161186a565b6101ac816118bf565b6003810154336001600160a01b039091160361026f57600681016101e2600260ff835460801c166101dc81611698565b146116db565b805460ff60801b1916600360801b17815561020790426001600160401b031690611842565b805460405191907f365a3d0a71be5f440c8224437355d5bd81a703759bf906e441902272bfbafcb3602084600361023f9652a2611902565b604051600381525f5160206119ac5f395f51905f5260203392a3005b634e487b7160e01b5f52602160045260245ffd5b5f80fd5b60405162461bcd60e51b815260206004820152600d60248201526c27a7262cafa922aa20a4a622a960991b6044820152606490fd5b3461026f575f36600319011261026f575f546040516001600160a01b039091168152602090f35b3461026f576102e76102e036611682565b919061186a565b60038101546001600160a01b0316330361026f5760050180546001600160801b0319166001600160801b0392909216919091179055005b3461026f57602036600319011261026f576004355f5260076020526101a060405f2060ff815491600181015460018060a01b036002830154169160018060a01b036003820154166004820154906006600584015493015494868660801c16946040519889526020890152604088015260608701526001600160801b038116608087015260801c60a08601526001600160801b03811660c086015260801c60e08501526001600160401b0382166101008501526001600160401b038260401c166101208501526103ec81611698565b610140840152818160881c16151561016084015260901c161515610180820152f35b3461026f57602036600319011261026f57600435335f52600360205260ff60405f205416156104e7576104408161186a565b610449816118bf565b6003810154336001600160a01b039091160361026f5760068101610479600160ff835460801c166101dc81611698565b805460ff60801b1916600160811b17815561049e90426001600160401b031690611842565b5460405160208160027f365a3d0a71be5f440c8224437355d5bd81a703759bf906e441902272bfbafcb39352a2604051600281525f5160206119ac5f395f51905f5260203392a3005b60405162461bcd60e51b815260206004820152601060248201526f27a7262cafa224a9aa2924a12aaa27a960811b6044820152606490fd5b3461026f57602036600319011261026f577f6e6436ac1c0629cca39b4bc5a42892c686a397bade5737a5b2ae50770e990cd6602060043561056a60018060a01b035f541633146116a2565b60066105758261186a565b01805461ffff60801b1916604160821b179055604051908152a1005b3461026f57602036600319011261026f576004356001600160a01b0381169081900361026f575f526003602052602060ff60405f2054166040519015158152f35b3461026f57602036600319011261026f576004356001600160a01b0381169081900361026f5761060c60018060a01b035f541633146116a2565b5f908152600160205260409020805460ff19169055005b3461026f57602036600319011261026f576004356001600160a01b0381169081900361026f5760805f5160206119cc5f395f51905f529161066e60018060a01b035f541633146116a2565b805f52600160205260405f20600160ff19825416179055604051906040825260066040830152652320a926a2a960d11b60608301526020820152a1005b3461026f57606036600319011261026f57600435602435335f52600160205260ff60405f2054161561084e57815f5260076020526106ed60405f205415611809565b805f52600660205260405f2060ff60028201541615610814576001015442116107e0575f82815260076020526040902082815560018101919091556002810180546001600160a01b03199081163390811790925560038301805490911690911790556004810180546001600160801b0319166044356001600160801b0316179055600601805470ff0000000000000000ffffffffffffffff1916426001600160401b0316908117825561079f91611842565b60405133827faaed580d4fe13689c950c46cfb81764d28b4e2654b987b7fa488ea3dc9d783c85f80a35f81525f5160206119ac5f395f51905f5260203392a3005b60405162461bcd60e51b815260206004820152600c60248201526b10d1549517d156141254915160a21b6044820152606490fd5b60405162461bcd60e51b81526020600482015260126024820152711190549357d393d517d0d15495125192515160721b6044820152606490fd5b60405162461bcd60e51b815260206004820152600b60248201526a27a7262cafa320a926a2a960a91b6044820152606490fd5b3461026f57602036600319011261026f577f0193555d7e9c83ab3bf1b10073a2a5ddd375fe766472eca26db2f6f7c15f26e5602060043561056a60018060a01b035f541633146116a2565b3461026f57602036600319011261026f5760606101a06040516108ee81611714565b5f81525f60208201525f60408201525f838201525f60808201525f60a08201525f60c08201525f60e08201525f6101008201525f6101208201525f6101408201525f6101608201525f61018082015201526004355f52600760205260405f2060405161095981611714565b815481526001820154906020810191825260018060a01b03600284015416926040820193845260018060a01b03600382015416906060830191825260048101548360808101926001600160801b038316845260a082019260801c835260058101549360c08301946001600160801b038116865260e084019060801c815260068301549586956101008601936001600160401b038816855260076101208801966001600160401b038a60401c16885260ff610180818c60801c169a61014081019b610a2281611698565b8c528261016082019d60881c1615158d52019b60901c1615158b5201996040519a8b602082549182815201915f5260205f20905f5b818110610b78575050508b9003610a6e908c611730565b6101a08c019a8b52604051809e819e602083526101e083019e516020840152516040830152600160a01b600190039051169060600152600160a01b6001900390511660808d0152516001600160801b031660a08c0152516001600160801b031660c08b0152516001600160801b031660e08a0152516001600160801b0316610100890152516001600160401b0316610120880152516001600160401b031661014087015251610b1c81611698565b6101608601525115156101808501525115156101a084015251906101c083016101c090528151809152610200830191602001905f5b818110610b5f575050500390f35b8251845285945060209384019390920191600101610b51565b8254845260209093019260019283019201610a57565b3461026f57602036600319011261026f576004356001600160a01b0381169081900361026f575f526004602052602060ff60405f2054166040519015158152f35b3461026f57604036600319011261026f576004356024356001600160401b03811161026f573660238201121561026f578060040135906001600160401b03821161026f57602481013660248460051b8401011161026f57335f526002602052610c3e60ff60405f2054166117cc565b835f526007602052610c5460405f205415611809565b5f93845b84861015610cd55760248660051b850101355f52600760205260405f20600160ff600683015460801c16610c8b81611698565b0361026f576003810154336001600160a01b039091160361026f576004015460801c8101809111610cc157600190950194610c58565b634e487b7160e01b5f52601160045260245ffd5b84825f52600760205260405f20918115610e415784355f908152600760208190526040909120600190810154908501558484556003840180546001600160a01b031916331790556004840180546001600160801b0319166001600160801b03939093169290921790915560068301805460ff60801b1916600160801b178155920193680100000000000000008211610e2d578454828655808310610e07575b50935f5260205f205f5b828110610df357835467ffffffffffffffff1916426001600160401b031690811785558590610dad9086611842565b7f6d464c92f87943ecbd519a80912d55d03aa6be625bd5ebc447151d4beb2eb8cc6020604051838152a1604051600481525f5160206119ac5f395f51905f5260203392a3005b600190602087359701968184015501610d7e565b855f528260205f2091820191015b818110610e225750610d74565b5f8155600101610e15565b634e487b7160e01b5f52604160045260245ffd5b634e487b7160e01b5f52603260045260245ffd5b3461026f57602036600319011261026f576004356001600160a01b0381169081900361026f575f526002602052602060ff60405f2054166040519015158152f35b3461026f57602036600319011261026f576004356001600160a01b0381169081900361026f5760805f5160206119cc5f395f51905f5291610ee160018060a01b035f541633146116a2565b805f52600260205260405f20600160ff1982541617905560405190604082526009604083015268282927a1a2a9a9a7a960b91b60608301526020820152a1005b3461026f57602036600319011261026f576004356001600160a01b0381169081900361026f57610f5b60018060a01b035f541633146116a2565b5f908152600260205260409020805460ff19169055005b3461026f57610f8036611682565b335f526002602052610f9860ff60405f2054166117cc565b610fa18261186a565b90610fab826118bf565b6003820154336001600160a01b039091160361026f5761100a6001600160801b036006840192610feb60ff855460801c16610fe581611698565b156116db565b1660048401906001600160801b0382549181199060801b169116179055565b805460ff60801b1916600160801b17815561102f90426001600160401b031690611842565b5460405160208160017f365a3d0a71be5f440c8224437355d5bd81a703759bf906e441902272bfbafcb39352a2604051600181525f5160206119ac5f395f51905f5260203392a3005b3461026f57602036600319011261026f576004356001600160a01b0381169081900361026f576110b260018060a01b035f541633146116a2565b5f908152600460205260409020805460ff19169055005b602036600319011261026f576004356110e18161186a565b6110ea816118bf565b60058101906001600160801b0382541634106111855760030180546001600160a01b03198116331790915581546001600160a01b0391909116919060801c346001600160801b0390811691909101908111610cc15781546001600160801b031660809190911b6001600160801b03191617905533917f16b85f49bf01212961345d3016c9a531894accf62eb7680f2045d79185cc0ec05f80a4005b60405162461bcd60e51b8152602060048201526014602482015273125394d551919250d251539517d410565351539560621b6044820152606490fd5b3461026f57602036600319011261026f576004356001600160a01b0381169081900361026f5760805f5160206119cc5f395f51905f529161120c60018060a01b035f541633146116a2565b805f52600360205260405f20600160ff198254161790556040519060408252600b60408301526a2224a9aa2924a12aaa27a960a91b60608301526020820152a1005b3461026f57602036600319011261026f576004356001600160a01b0381169081900361026f5760805f5160206119cc5f395f51905f529161129960018060a01b035f541633146116a2565b805f52600560205260405f20600160ff198254161790556040519060408252600960408301526821a2a92a24a324a2a960b91b60608301526020820152a1005b3461026f57602036600319011261026f576004356001600160a01b0381169081900361026f575f526005602052602060ff60405f2054166040519015158152f35b3461026f5761132836611668565b91335f52600560205261134160ff60405f20541661178f565b60405192606084018481106001600160401b03821117610e2d577ff701ae1187f8e5102b12ef0f9d1b46bf1e52c6e83afe3b3c7da130bc9ae0ddd6946020946002926040528152848101928352604081019260018452845f526006865260405f2091518255516001820155019051151560ff80198354169116179055604051908152a1005b3461026f576113d436611668565b91335f5260056020526113ed60ff60405f20541661178f565b5f52600660205260405f2060ff6002820154161561140e5790815560010155005b60405162461bcd60e51b815260206004820152600d60248201526c1393d517d0d154951251925151609a1b6044820152606490fd5b3461026f57602036600319011261026f576004356001600160a01b0381169081900361026f575f526001602052602060ff60405f2054166040519015158152f35b3461026f57602036600319011261026f576114a960018060a01b035f541633146116a2565b6114b460043561186a565b60ff600682015460901c1661026f575f808083600582950190815460801c916001600160801b038154169055600260018060a01b03910154165af16114f7611751565b501561026f57005b3461026f57602036600319011261026f5761151b60043561186a565b60038101546001600160a01b0316330361026f57600260ff600661154893015460801c166101dc81611698565b005b3461026f57602036600319011261026f576004356001600160a01b0381169081900361026f5760805f5160206119cc5f395f51905f529161159560018060a01b035f541633146116a2565b805f52600460205260405f20600160ff19825416179055604051906040825260086040830152672922aa20a4a622a960c11b60608301526020820152a1005b3461026f57602036600319011261026f576004356001600160a01b0381169081900361026f5761160e60018060a01b035f541633146116a2565b5f908152600360205260409020805460ff19169055005b3461026f57602036600319011261026f576060906004355f52600660205260405f2080549060ff6002600183015492015416918352602083015215156040820152f35b606090600319011261026f57600435906024359060443590565b604090600319011261026f576004359060243590565b6005111561025b57565b156116a957565b60405162461bcd60e51b815260206004820152600a60248201526927a7262cafa0a226a4a760b11b6044820152606490fd5b156116e257565b60405162461bcd60e51b815260206004820152600a6024820152694241445f53544154555360b01b6044820152606490fd5b6101c081019081106001600160401b03821117610e2d57604052565b90601f801991011681019081106001600160401b03821117610e2d57604052565b3d1561178a573d906001600160401b038211610e2d576040519161177f601f8201601f191660200184611730565b82523d5f602084013e565b606090565b1561179657565b60405162461bcd60e51b815260206004820152600e60248201526d27a7262cafa1a2a92a24a324a2a960911b6044820152606490fd5b156117d357565b60405162461bcd60e51b815260206004820152600e60248201526d27a7262cafa82927a1a2a9a9a7a960911b6044820152606490fd5b1561181057565b60405162461bcd60e51b815260206004820152600a6024820152694c4f545f45584953545360b01b6044820152606490fd5b9067ffffffffffffffff60401b82549160401b169067ffffffffffffffff60401b1916179055565b805f52600760205260405f20541561188a575f52600760205260405f2090565b60405162461bcd60e51b815260206004820152600d60248201526c1313d517d393d517d193d55391609a1b6044820152606490fd5b6006015460881c60ff166118cf57565b60405162461bcd60e51b815260206004820152600b60248201526a1313d517d1931051d1d15160aa1b6044820152606490fd5b6006810180549060ff8260901c16801561199c575b61199757600583015460801c91600160901b9060ff60901b191617905560028201915f8080808560018060a01b038854165af1611952611751565b501561026f57549154604080519283526001600160a01b0390911660208301527fb398ec266cae176bd0a8d43b35200da0bb13c5620ad5e1663abdc3967a4ee50f91a2565b505050565b50600583015460801c1561191756fec8644c2ef950ce9b58c7f3bf103cdabd79c55dc27f03686ff878c0c33f36fcfa606c98545793c0df614e4a07a49270302c92a296bcdbcf571aaae6655540af99a26469706673582212208acd76d54fd3b26b132be420bd13738f89cdfd6dc3bdc4a63b2042d3d04d9fc364736f6c634300081c0033","opcodes":"PUSH1 0x80 DUP1 PUSH1 0x40 MSTORE CALLVALUE PUSH1 0x26 JUMPI PUSH0 DUP1 SLOAD PUSH1 0x1 PUSH1 0x1 PUSH1 0xA0 SHL SUB NOT AND CALLER OR SWAP1 SSTORE PUSH2 0x1A21 SWAP1 DUP2 PUSH2 0x2B DUP3 CODECOPY RETURN JUMPDEST PUSH0 DUP1 REVERT INVALID PUSH1 0x80 DUP1 PUSH1 0x40 MSTORE PUSH1 0x4 CALLDATASIZE LT ISZERO PUSH2 0x12 JUMPI PUSH0 DUP1 REVERT JUMPDEST PUSH0 CALLDATALOAD PUSH1 0xE0 SHR SWAP1 DUP2 PUSH4 0x10F908BD EQ PUSH2 0x1625 JUMPI POP DUP1 PUSH4 0x120B93D3 EQ PUSH2 0x15D4 JUMPI DUP1 PUSH4 0x25C99191 EQ PUSH2 0x154A JUMPI DUP1 PUSH4 0x27DAC36D EQ PUSH2 0x14FF JUMPI DUP1 PUSH4 0x356F9DFD EQ PUSH2 0x1484 JUMPI DUP1 PUSH4 0x401B2168 EQ PUSH2 0x1443 JUMPI DUP1 PUSH4 0x4968441B EQ PUSH2 0x13C6 JUMPI DUP1 PUSH4 0x514A88AB EQ PUSH2 0x131A JUMPI DUP1 PUSH4 0x5D42B2B9 EQ PUSH2 0x12D9 JUMPI DUP1 PUSH4 0x60376528 EQ PUSH2 0x124E JUMPI DUP1 PUSH4 0x63CA21D7 EQ PUSH2 0x11C1 JUMPI DUP1 PUSH4 0x74E3E3DC EQ PUSH2 0x10C9 JUMPI DUP1 PUSH4 0x782EB934 EQ PUSH2 0x1078 JUMPI DUP1 PUSH4 0x7A9B62BA EQ PUSH2 0xF72 JUMPI DUP1 PUSH4 0x8B017A24 EQ PUSH2 0xF21 JUMPI DUP1 PUSH4 0x95809737 EQ PUSH2 0xE96 JUMPI DUP1 PUSH4 0x965E064A EQ PUSH2 0xE55 JUMPI DUP1 PUSH4 0x98330BB2 EQ PUSH2 0xBCF JUMPI DUP1 PUSH4 0x9A268F35 EQ PUSH2 0xB8E JUMPI DUP1 PUSH4 0xAB995D12 EQ PUSH2 0x8CC JUMPI DUP1 PUSH4 0xB233A679 EQ PUSH2 0x881 JUMPI DUP1 PUSH4 0xC009D80B EQ PUSH2 0x6AB JUMPI DUP1 PUSH4 0xC208BDF8 EQ PUSH2 0x623 JUMPI DUP1 PUSH4 0xC2B0513A EQ PUSH2 0x5D2 JUMPI DUP1 PUSH4 0xCC642784 EQ PUSH2 0x591 JUMPI DUP1 PUSH4 0xE7862353 EQ PUSH2 0x51F JUMPI DUP1 PUSH4 0xEED90D6B EQ PUSH2 0x40E JUMPI DUP1 PUSH4 0xF1648E84 EQ PUSH2 0x31E JUMPI DUP1 PUSH4 0xF7D97577 EQ PUSH2 0x2CF JUMPI DUP1 PUSH4 0xF851A440 EQ PUSH2 0x2A8 JUMPI PUSH4 0xFED0ABC8 EQ PUSH2 0x171 JUMPI PUSH0 DUP1 REVERT JUMPDEST CALLVALUE PUSH2 0x26F JUMPI PUSH1 0x20 CALLDATASIZE PUSH1 0x3 NOT ADD SLT PUSH2 0x26F JUMPI PUSH1 0x4 CALLDATALOAD CALLER PUSH0 MSTORE PUSH1 0x4 PUSH1 0x20 MSTORE PUSH1 0xFF PUSH1 0x40 PUSH0 KECCAK256 SLOAD AND ISZERO PUSH2 0x273 JUMPI PUSH2 0x1A3 DUP2 PUSH2 0x186A JUMP JUMPDEST PUSH2 0x1AC DUP2 PUSH2 0x18BF JUMP JUMPDEST PUSH1 0x3 DUP2 ADD SLOAD CALLER PUSH1 0x1 PUSH1 0x1 PUSH1 0xA0 SHL SUB SWAP1 SWAP2 AND SUB PUSH2 0x26F JUMPI PUSH1 0x6 DUP2 ADD PUSH2 0x1E2 PUSH1 0x2 PUSH1 0xFF DUP4 SLOAD PUSH1 0x80 SHR AND PUSH2 0x1DC DUP2 PUSH2 0x1698 JUMP JUMPDEST EQ PUSH2 0x16DB JUMP JUMPDEST DUP1 SLOAD PUSH1 0xFF PUSH1 0x80 SHL NOT AND PUSH1 0x3 PUSH1 0x80 SHL OR DUP2 SSTORE PUSH2 0x207 SWAP1 TIMESTAMP PUSH1 0x1 PUSH1 0x1 PUSH1 0x40 SHL SUB AND SWAP1 PUSH2 0x1842 JUMP JUMPDEST DUP1 SLOAD PUSH1 0x40 MLOAD SWAP2 SWAP1 PUSH32 0x365A3D0A71BE5F440C8224437355D5BD81A703759BF906E441902272BFBAFCB3 PUSH1 0x20 DUP5 PUSH1 0x3 PUSH2 0x23F SWAP7 MSTORE LOG2 PUSH2 0x1902 JUMP JUMPDEST PUSH1 0x40 MLOAD PUSH1 0x3 DUP2 MSTORE PUSH0 MLOAD PUSH1 0x20 PUSH2 0x19AC PUSH0 CODECOPY PUSH0 MLOAD SWAP1 PUSH0 MSTORE PUSH1 0x20 CALLER SWAP3 LOG3 STOP JUMPDEST PUSH4 0x4E487B71 PUSH1 0xE0 SHL PUSH0 MSTORE PUSH1 0x21 PUSH1 0x4 MSTORE PUSH1 0x24 PUSH0 REVERT JUMPDEST PUSH0 DUP1 REVERT JUMPDEST PUSH1 0x40 MLOAD PUSH3 0x461BCD PUSH1 0xE5 SHL DUP2 MSTORE PUSH1 0x20 PUSH1 0x4 DUP3 ADD MSTORE PUSH1 0xD PUSH1 0x24 DUP3 ADD MSTORE PUSH13 0x27A7262CAFA922AA20A4A622A9 PUSH1 0x99 SHL PUSH1 0x44 DUP3 ADD MSTORE PUSH1 0x64 SWAP1 REVERT JUMPDEST CALLVALUE PUSH2 0x26F JUMPI PUSH0 CALLDATASIZE PUSH1 0x3 NOT ADD SLT PUSH2 0x26F JUMPI PUSH0 SLOAD PUSH1 0x40 MLOAD PUSH1 0x1 PUSH1 0x1 PUSH1 0xA0 SHL SUB SWAP1 SWAP2 AND DUP2 MSTORE PUSH1 0x20 SWAP1 RETURN JUMPDEST CALLVALUE PUSH2 0x26F JUMPI PUSH2 0x2E7 PUSH2 0x2E0 CALLDATASIZE PUSH2 0x1682 JUMP JUMPDEST SWAP2 SWAP1 PUSH2 0x186A JUMP JUMPDEST PUSH1 0x3 DUP2 ADD SLOAD PUSH1 0x1 PUSH1 0x1 PUSH1 0xA0 SHL SUB AND CALLER SUB PUSH2 0x26F JUMPI PUSH1 0x5 ADD DUP1 SLOAD PUSH1 0x1 PUSH1 0x1 PUSH1 0x80 SHL SUB NOT AND PUSH1 0x1 PUSH1 0x1 PUSH1 0x80 SHL SUB SWAP3 SWAP1 SWAP3 AND SWAP2 SWAP1 SWAP2 OR SWAP1 SSTORE STOP JUMPDEST CALLVALUE PUSH2 0x26F JUMPI PUSH1 0x20 CALLDATASIZE PUSH1 0x3 NOT ADD SLT PUSH2 0x26F JUMPI PUSH1 0x4 CALLDATALOAD PUSH0 MSTORE PUSH1 0x7 PUSH1 0x20 MSTORE PUSH2 0x1A0 PUSH1 0x40 PUSH0 KECCAK256 PUSH1 0xFF DUP2 SLOAD SWAP2 PUSH1 0x1 DUP2 ADD SLOAD PUSH1 0x1 DUP1 PUSH1 0xA0 SHL SUB PUSH1 0x2 DUP4 ADD SLOAD AND SWAP2 PUSH1 0x1 DUP1 PUSH1 0xA0 SHL SUB PUSH1 0x3 DUP3 ADD SLOAD AND PUSH1 0x4 DUP3 ADD SLOAD SWAP1 PUSH1 0x6 PUSH1 0x5 DUP5 ADD SLOAD SWAP4 ADD SLOAD SWAP5 DUP7 DUP7 PUSH1 0x80 SHR AND SWAP5 PUSH1 0x40 MLOAD SWAP9 DUP10 MSTORE PUSH1 0x20 DUP10 ADD MSTORE PUSH1 0x40 DUP9 ADD MSTORE PUSH1 0x60 DUP8 ADD MSTORE PUSH1 0x1 PUSH1 0x1 PUSH1 0x80 SHL SUB DUP2 AND PUSH1 0x80 DUP8 ADD MSTORE PUSH1 0x80 SHR PUSH1 0xA0 DUP7 ADD MSTORE PUSH1 0x1 PUSH1 0x1 PUSH1 0x80 SHL SUB DUP2 AND PUSH1 0xC0 DUP7 ADD MSTORE PUSH1 0x80 SHR PUSH1 0xE0 DUP6 ADD MSTORE PUSH1 0x1 PUSH1 0x1 PUSH1 0x40 SHL SUB DUP3 AND PUSH2 0x100 DUP6 ADD MSTORE PUSH1 0x1 PUSH1 0x1 PUSH1 0x40 SHL SUB DUP3 PUSH1 0x40 SHR AND PUSH2 0x120 DUP6 ADD MSTORE PUSH2 0x3EC DUP2 PUSH2 0x1698 JUMP JUMPDEST PUSH2 0x140 DUP5 ADD MSTORE DUP2 DUP2 PUSH1 0x88 SHR AND ISZERO ISZERO PUSH2 0x160 DUP5 ADD MSTORE PUSH1 0x90 SHR AND ISZERO ISZERO PUSH2 0x180 DUP3 ADD MSTORE RETURN JUMPDEST CALLVALUE PUSH2 0x26F JUMPI PUSH1 0x20 CALLDATASIZE PUSH1 0x3 NOT ADD SLT PUSH2 0x26F JUMPI PUSH1 0x4 CALLDATALOAD CALLER PUSH0 MSTORE PUSH1 0x3 PUSH1 0x20 MSTORE PUSH1 0xFF PUSH1 0x40 PUSH0 KECCAK256 SLOAD AND ISZERO PUSH2 0x4E7 JUMPI PUSH2 0x440 DUP2 PUSH2 0x186A JUMP JUMPDEST PUSH2 0x449 DUP2 PUSH2 0x18BF JUMP JUMPDEST PUSH1 0x3 DUP2 ADD SLOAD CALLER PUSH1 0x1 PUSH1 0x1 PUSH1 0xA0 SHL SUB SWAP1 SWAP2 AND SUB PUSH2 0x26F JUMPI PUSH1 0x6 DUP2 ADD PUSH2 0x479 PUSH1 0x1 PUSH1 0xFF DUP4 SLOAD PUSH1 0x80 SHR AND PUSH2 0x1DC DUP2 PUSH2 0x1698 JUMP JUMPDEST DUP1 SLOAD PUSH1 0xFF PUSH1 0x80 SHL NOT AND PUSH1 0x1 PUSH1 0x81 SHL OR DUP2 SSTORE PUSH2 0x49E SWAP1 TIMESTAMP PUSH1 0x1 PUSH1 0x1 PUSH1 0x40 SHL SUB AND SWAP1 PUSH2 0x1842 JUMP JUMPDEST SLOAD PUSH1 0x40 MLOAD PUSH1 0x20 DUP2 PUSH1 0x2 PUSH32 0x365A3D0A71BE5F440C8224437355D5BD81A703759BF906E441902272BFBAFCB3 SWAP4 MSTORE LOG2 PUSH1 0x40 MLOAD PUSH1 0x2 DUP2 MSTORE PUSH0 MLOAD PUSH1 0x20 PUSH2 0x19AC PUSH0 CODECOPY PUSH0 MLOAD SWAP1 PUSH0 MSTORE PUSH1 0x20 CALLER SWAP3 LOG3 STOP JUMPDEST PUSH1 0x40 MLOAD PUSH3 0x461BCD PUSH1 0xE5 SHL DUP2 MSTORE PUSH1 0x20 PUSH1 0x4 DUP3 ADD MSTORE PUSH1 0x10 PUSH1 0x24 DUP3 ADD MSTORE PUSH16 0x27A7262CAFA224A9AA2924A12AAA27A9 PUSH1 0x81 SHL PUSH1 0x44 DUP3 ADD MSTORE PUSH1 0x64 SWAP1 REVERT JUMPDEST CALLVALUE PUSH2 0x26F JUMPI PUSH1 0x20 CALLDATASIZE PUSH1 0x3 NOT ADD SLT PUSH2 0x26F JUMPI PUSH32 0x6E6436AC1C0629CCA39B4BC5A42892C686A397BADE5737A5B2AE50770E990CD6 PUSH1 0x20 PUSH1 0x4 CALLDATALOAD PUSH2 0x56A PUSH1 0x1 DUP1 PUSH1 0xA0 SHL SUB PUSH0 SLOAD AND CALLER EQ PUSH2 0x16A2 JUMP JUMPDEST PUSH1 0x6 PUSH2 0x575 DUP3 PUSH2 0x186A JUMP JUMPDEST ADD DUP1 SLOAD PUSH2 0xFFFF PUSH1 0x80 SHL NOT AND PUSH1 0x41 PUSH1 0x82 SHL OR SWAP1 SSTORE PUSH1 0x40 MLOAD SWAP1 DUP2 MSTORE LOG1 STOP JUMPDEST CALLVALUE PUSH2 0x26F JUMPI PUSH1 0x20 CALLDATASIZE PUSH1 0x3 NOT ADD SLT PUSH2 0x26F JUMPI PUSH1 0x4 CALLDATALOAD PUSH1 0x1 PUSH1 0x1 PUSH1 0xA0 SHL SUB DUP2 AND SWAP1 DUP2 SWAP1 SUB PUSH2 0x26F JUMPI PUSH0 MSTORE PUSH1 0x3 PUSH1 0x20 MSTORE PUSH1 0x20 PUSH1 0xFF PUSH1 0x40 PUSH0 KECCAK256 SLOAD AND PUSH1 0x40 MLOAD SWAP1 ISZERO ISZERO DUP2 MSTORE RETURN JUMPDEST CALLVALUE PUSH2 0x26F JUMPI PUSH1 0x20 CALLDATASIZE PUSH1 0x3 NOT ADD SLT PUSH2 0x26F JUMPI PUSH1 0x4 CALLDATALOAD PUSH1 0x1 PUSH1 0x1 PUSH1 0xA0 SHL SUB DUP2 AND SWAP1 DUP2 SWAP1 SUB PUSH2 0x26F JUMPI PUSH2 0x60C PUSH1 0x1 DUP1 PUSH1 0xA0 SHL SUB PUSH0 SLOAD AND CALLER EQ PUSH2 0x16A2 JUMP JUMPDEST PUSH0 SWAP1 DUP2 MSTORE PUSH1 0x1 PUSH1 0x20 MSTORE PUSH1 0x40 SWAP1 KECCAK256 DUP1 SLOAD PUSH1 0xFF NOT AND SWAP1 SSTORE STOP JUMPDEST CALLVALUE PUSH2 0x26F JUMPI PUSH1 0x20 CALLDATASIZE PUSH1 0x3 NOT ADD SLT PUSH2 0x26F JUMPI PUSH1 0x4 CALLDATALOAD PUSH1 0x1 PUSH1 0x1 PUSH1 0xA0 SHL SUB DUP2 AND SWAP1 DUP2 SWAP1 SUB PUSH2 0x26F JUMPI PUSH1 0x80 PUSH0 MLOAD PUSH1 0x20 PUSH2 0x19CC PUSH0 CODECOPY PUSH0 MLOAD SWAP1 PUSH0 MSTORE SWAP2 PUSH2 0x66E PUSH1 0x1 DUP1 PUSH1 0xA0 SHL SUB PUSH0 SLOAD AND CALLER EQ PUSH2 0x16A2 JUMP JUMPDEST DUP1 PUSH0 MSTORE PUSH1 0x1 PUSH1 0x20 MSTORE PUSH1 0x40 PUSH0 KECCAK256 PUSH1 0x1 PUSH1 0xFF NOT DUP3 SLOAD AND OR SWAP1 SSTORE PUSH1 0x40 MLOAD SWAP1 PUSH1 0x40 DUP3 MSTORE PUSH1 0x6 PUSH1 0x40 DUP4 ADD MSTORE PUSH6 0x2320A926A2A9 PUSH1 0xD1 SHL PUSH1 0x60 DUP4 ADD MSTORE PUSH1 0x20 DUP3 ADD MSTORE LOG1 STOP JUMPDEST CALLVALUE PUSH2 0x26F JUMPI PUSH1 0x60 CALLDATASIZE PUSH1 0x3 NOT ADD SLT PUSH2 0x26F JUMPI PUSH1 0x4 CALLDATALOAD PUSH1 0x24 CALLDATALOAD CALLER PUSH0 MSTORE PUSH1 0x1 PUSH1 0x20 MSTORE PUSH1 0xFF PUSH1 0x40 PUSH0 KECCAK256 SLOAD AND ISZERO PUSH2 0x84E JUMPI DUP2 PUSH0 MSTORE PUSH1 0x7 PUSH1 0x20 MSTORE PUSH2 0x6ED PUSH1 0x40 PUSH0 KECCAK256 SLOAD ISZERO PUSH2 0x1809 JUMP JUMPDEST DUP1 PUSH0 MSTORE PUSH1 0x6 PUSH1 0x20 MSTORE PUSH1 0x40 PUSH0 KECCAK256 PUSH1 0xFF PUSH1 0x2 DUP3 ADD SLOAD AND ISZERO PUSH2 0x814 JUMPI PUSH1 0x1 ADD SLOAD TIMESTAMP GT PUSH2 0x7E0 JUMPI PUSH0 DUP3 DUP2 MSTORE PUSH1 0x7 PUSH1 0x20 MSTORE PUSH1 0x40 SWAP1 KECCAK256 DUP3 DUP2 SSTORE PUSH1 0x1 DUP2 ADD SWAP2 SWAP1 SWAP2 SSTORE PUSH1 0x2 DUP2 ADD DUP1 SLOAD PUSH1 0x1 PUSH1 0x1 PUSH1 0xA0 SHL SUB NOT SWAP1 DUP2 AND CALLER SWAP1 DUP2 OR SWAP1 SWAP3 SSTORE PUSH1 0x3 DUP4 ADD DUP1 SLOAD SWAP1 SWAP2 AND SWAP1 SWAP2 OR SWAP1 SSTORE PUSH1 0x4 DUP2 ADD DUP1 SLOAD PUSH1 0x1 PUSH1 0x1 PUSH1 0x80 SHL SUB NOT AND PUSH1 0x44 CALLDATALOAD PUSH1 0x1 PUSH1 0x1 PUSH1 0x80 SHL SUB AND OR SWAP1 SSTORE PUSH1 0x6 ADD DUP1 SLOAD PUSH17 0xFF0000000000000000FFFFFFFFFFFFFFFF NOT AND TIMESTAMP PUSH1 0x1 PUSH1 0x1 PUSH1 0x40 SHL SUB AND SWAP1 DUP2 OR DUP3 SSTORE PUSH2 0x79F SWAP2 PUSH2 0x1842 JUMP JUMPDEST PUSH1 0x40 MLOAD CALLER DUP3 PUSH32 0xAAED580D4FE13689C950C46CFB81764D28B4E2654B987B7FA488EA3DC9D783C8 PUSH0 DUP1 LOG3 PUSH0 DUP2 MSTORE PUSH0 MLOAD PUSH1 0x20 PUSH2 0x19AC PUSH0 CODECOPY PUSH0 MLOAD SWAP1 PUSH0 MSTORE PUSH1 0x20 CALLER SWAP3 LOG3 STOP JUMPDEST PUSH1 0x40 MLOAD PUSH3 0x461BCD PUSH1 0xE5 SHL DUP2 MSTORE PUSH1 0x20 PUSH1 0x4 DUP3 ADD MSTORE PUSH1 0xC PUSH1 0x24 DUP3 ADD MSTORE PUSH12 0x10D1549517D1561412549151 PUSH1 0xA2 SHL PUSH1 0x44 DUP3 ADD MSTORE PUSH1 0x64 SWAP1 REVERT JUMPDEST PUSH1 0x40 MLOAD PUSH3 0x461BCD PUSH1 0xE5 SHL DUP2 MSTORE PUSH1 0x20 PUSH1 0x4 DUP3 ADD MSTORE PUSH1 0x12 PUSH1 0x24 DUP3 ADD MSTORE PUSH18 0x1190549357D393D517D0D154951251925151 PUSH1 0x72 SHL PUSH1 0x44 DUP3 ADD MSTORE PUSH1 0x64 SWAP1 REVERT JUMPDEST PUSH1 0x40 MLOAD PUSH3 0x461BCD PUSH1 0xE5 SHL DUP2 MSTORE PUSH1 0x20 PUSH1 0x4 DUP3 ADD MSTORE PUSH1 0xB PUSH1 0x24 DUP3 ADD MSTORE PUSH11 0x27A7262CAFA320A926A2A9 PUSH1 0xA9 SHL PUSH1 0x44 DUP3 ADD MSTORE PUSH1 0x64 SWAP1 REVERT JUMPDEST CALLVALUE PUSH2 0x26F JUMPI PUSH1 0x20 CALLDATASIZE PUSH1 0x3 NOT ADD SLT PUSH2 0x26F JUMPI PUSH32 0x193555D7E9C83AB3BF1B10073A2A5DDD375FE766472ECA26DB2F6F7C15F26E5 PUSH1 0x20 PUSH1 0x4 CALLDATALOAD PUSH2 0x56A PUSH1 0x1 DUP1 PUSH1 0xA0 SHL SUB PUSH0 SLOAD AND CALLER EQ PUSH2 0x16A2 JUMP JUMPDEST CALLVALUE PUSH2 0x26F JUMPI PUSH1 0x20 CALLDATASIZE PUSH1 0x3 NOT ADD SLT PUSH2 0x26F JUMPI PUSH1 0x60 PUSH2 0x1A0 PUSH1 0x40 MLOAD PUSH2 0x8EE DUP2 PUSH2 0x1714 JUMP JUMPDEST PUSH0 DUP2 MSTORE PUSH0 PUSH1 0x20 DUP3 ADD MSTORE PUSH0 PUSH1 0x40 DUP3 ADD MSTORE PUSH0 DUP4 DUP3 ADD MSTORE PUSH0 PUSH1 0x80 DUP3 ADD MSTORE PUSH0 PUSH1 0xA0 DUP3 ADD MSTORE PUSH0 PUSH1 0xC0 DUP3 ADD MSTORE PUSH0 PUSH1 0xE0 DUP3 ADD MSTORE PUSH0 PUSH2 0x100 DUP3 ADD MSTORE PUSH0 PUSH2 0x120 DUP3 ADD MSTORE PUSH0 PUSH2 0x140 DUP3 ADD MSTORE PUSH0 PUSH2 0x160 DUP3 ADD MSTORE PUSH0 PUSH2 0x180 DUP3 ADD MSTORE ADD MSTORE PUSH1 0x4 CALLDATALOAD PUSH0 MSTORE PUSH1 0x7 PUSH1 0x20 MSTORE PUSH1 0x40 PUSH0 KECCAK256 PUSH1 0x40 MLOAD PUSH2 0x959 DUP2 PUSH2 0x1714 JUMP JUMPDEST DUP2 SLOAD DUP2 MSTORE PUSH1 0x1 DUP3 ADD SLOAD SWAP1 PUSH1 0x20 DUP2 ADD SWAP2 DUP3 MSTORE PUSH1 0x1 DUP1 PUSH1 0xA0 SHL SUB PUSH1 0x2 DUP5 ADD SLOAD AND SWAP3 PUSH1 0x40 DUP3 ADD SWAP4 DUP5 MSTORE PUSH1 0x1 DUP1 PUSH1 0xA0 SHL SUB PUSH1 0x3 DUP3 ADD SLOAD AND SWAP1 PUSH1 0x60 DUP4 ADD SWAP2 DUP3 MSTORE PUSH1 0x4 DUP2 ADD SLOAD DUP4 PUSH1 0x80 DUP2 ADD SWAP3 PUSH1 0x1 PUSH1 0x1 PUSH1 0x80 SHL SUB DUP4 AND DUP5 MSTORE PUSH1 0xA0 DUP3 ADD SWAP3 PUSH1 0x80 SHR DUP4 MSTORE PUSH1 0x5 DUP2 ADD SLOAD SWAP4 PUSH1 0xC0 DUP4 ADD SWAP5 PUSH1 0x1 PUSH1 0x1 PUSH1 0x80 SHL SUB DUP2 AND DUP7 MSTORE PUSH1 0xE0 DUP5 ADD SWAP1 PUSH1 0x80 SHR DUP2 MSTORE PUSH1 0x6 DUP4 ADD SLOAD SWAP6 DUP7 SWAP6 PUSH2 0x100 DUP7 ADD SWAP4 PUSH1 0x1 PUSH1 0x1 PUSH1 0x40 SHL SUB DUP9 AND DUP6 MSTORE PUSH1 0x7 PUSH2 0x120 DUP9 ADD SWAP7 PUSH1 0x1 PUSH1 0x1 PUSH1 0x40 SHL SUB DUP11 PUSH1 0x40 SHR AND DUP9 MSTORE PUSH1 0xFF PUSH2 0x180 DUP2 DUP13 PUSH1 0x80 SHR AND SWAP11 PUSH2 0x140 DUP2 ADD SWAP12 PUSH2 0xA22 DUP2 PUSH2 0x1698 JUMP JUMPDEST DUP13 MSTORE DUP3 PUSH2 0x160 DUP3 ADD SWAP14 PUSH1 0x88 SHR AND ISZERO ISZERO DUP14 MSTORE ADD SWAP12 PUSH1 0x90 SHR AND ISZERO ISZERO DUP12 MSTORE ADD SWAP10 PUSH1 0x40 MLOAD SWAP11 DUP12 PUSH1 0x20 DUP3 SLOAD SWAP2 DUP3 DUP2 MSTORE ADD SWAP2 PUSH0 MSTORE PUSH1 0x20 PUSH0 KECCAK256 SWAP1 PUSH0 JUMPDEST DUP2 DUP2 LT PUSH2 0xB78 JUMPI POP POP POP DUP12 SWAP1 SUB PUSH2 0xA6E SWAP1 DUP13 PUSH2 0x1730 JUMP JUMPDEST PUSH2 0x1A0 DUP13 ADD SWAP11 DUP12 MSTORE PUSH1 0x40 MLOAD DUP1 SWAP15 DUP2 SWAP15 PUSH1 0x20 DUP4 MSTORE PUSH2 0x1E0 DUP4 ADD SWAP15 MLOAD PUSH1 0x20 DUP5 ADD MSTORE MLOAD PUSH1 0x40 DUP4 ADD MSTORE PUSH1 0x1 PUSH1 0xA0 SHL PUSH1 0x1 SWAP1 SUB SWAP1 MLOAD AND SWAP1 PUSH1 0x60 ADD MSTORE PUSH1 0x1 PUSH1 0xA0 SHL PUSH1 0x1 SWAP1 SUB SWAP1 MLOAD AND PUSH1 0x80 DUP14 ADD MSTORE MLOAD PUSH1 0x1 PUSH1 0x1 PUSH1 0x80 SHL SUB AND PUSH1 0xA0 DUP13 ADD MSTORE MLOAD PUSH1 0x1 PUSH1 0x1 PUSH1 0x80 SHL SUB AND PUSH1 0xC0 DUP12 ADD MSTORE MLOAD PUSH1 0x1 PUSH1 0x1 PUSH1 0x80 SHL SUB AND PUSH1 0xE0 DUP11 ADD MSTORE MLOAD PUSH1 0x1 PUSH1 0x1 PUSH1 0x80 SHL SUB AND PUSH2 0x100 DUP10 ADD MSTORE MLOAD PUSH1 0x1 PUSH1 0x1 PUSH1 0x40 SHL SUB AND PUSH2 0x120 DUP9 ADD MSTORE MLOAD PUSH1 0x1 PUSH1 0x1 PUSH1 0x40 SHL SUB AND PUSH2 0x140 DUP8 ADD MSTORE MLOAD PUSH2 0xB1C DUP2 PUSH2 0x1698 JUMP JUMPDEST PUSH2 0x160 DUP7 ADD MSTORE MLOAD ISZERO ISZERO PUSH2 0x180 DUP6 ADD MSTORE MLOAD ISZERO ISZERO PUSH2 0x1A0 DUP5 ADD MSTORE MLOAD SWAP1 PUSH2 0x1C0 DUP4 ADD PUSH2 0x1C0 SWAP1 MSTORE DUP2 MLOAD DUP1 SWAP2 MSTORE PUSH2 0x200 DUP4 ADD SWAP2 PUSH1 0x20 ADD SWAP1 PUSH0 JUMPDEST DUP2 DUP2 LT PUSH2 0xB5F JUMPI POP POP POP SUB SWAP1 RETURN JUMPDEST DUP3 MLOAD DUP5 MSTORE DUP6 SWAP5 POP PUSH1 0x20 SWAP4 DUP5 ADD SWAP4 SWAP1 SWAP3 ADD SWAP2 PUSH1 0x1 ADD PUSH2 0xB51 JUMP JUMPDEST DUP3 SLOAD DUP5 MSTORE PUSH1 0x20 SWAP1 SWAP4 ADD SWAP3 PUSH1 0x1 SWAP3 DUP4 ADD SWAP3 ADD PUSH2 0xA57 JUMP JUMPDEST CALLVALUE PUSH2 0x26F JUMPI PUSH1 0x20 CALLDATASIZE PUSH1 0x3 NOT ADD SLT PUSH2 0x26F JUMPI PUSH1 0x4 CALLDATALOAD PUSH1 0x1 PUSH1 0x1 PUSH1 0xA0 SHL SUB DUP2 AND SWAP1 DUP2 SWAP1 SUB PUSH2 0x26F JUMPI PUSH0 MSTORE PUSH1 0x4 PUSH1 0x20 MSTORE PUSH1 0x20 PUSH1 0xFF PUSH1 0x40 PUSH0 KECCAK256 SLOAD AND PUSH1 0x40 MLOAD SWAP1 ISZERO ISZERO DUP2 MSTORE RETURN JUMPDEST CALLVALUE PUSH2 0x26F JUMPI PUSH1 0x40 CALLDATASIZE PUSH1 0x3 NOT ADD SLT PUSH2 0x26F JUMPI PUSH1 0x4 CALLDATALOAD PUSH1 0x24 CALLDATALOAD PUSH1 0x1 PUSH1 0x1 PUSH1 0x40 SHL SUB DUP2 GT PUSH2 0x26F JUMPI CALLDATASIZE PUSH1 0x23 DUP3 ADD SLT ISZERO PUSH2 0x26F JUMPI DUP1 PUSH1 0x4 ADD CALLDATALOAD SWAP1 PUSH1 0x1 PUSH1 0x1 PUSH1 0x40 SHL SUB DUP3 GT PUSH2 0x26F JUMPI PUSH1 0x24 DUP2 ADD CALLDATASIZE PUSH1 0x24 DUP5 PUSH1 0x5 SHL DUP5 ADD ADD GT PUSH2 0x26F JUMPI CALLER PUSH0 MSTORE PUSH1 0x2 PUSH1 0x20 MSTORE PUSH2 0xC3E PUSH1 0xFF PUSH1 0x40 PUSH0 KECCAK256 SLOAD AND PUSH2 0x17CC JUMP JUMPDEST DUP4 PUSH0 MSTORE PUSH1 0x7 PUSH1 0x20 MSTORE PUSH2 0xC54 PUSH1 0x40 PUSH0 KECCAK256 SLOAD ISZERO PUSH2 0x1809 JUMP JUMPDEST PUSH0 SWAP4 DUP5 JUMPDEST DUP5 DUP7 LT ISZERO PUSH2 0xCD5 JUMPI PUSH1 0x24 DUP7 PUSH1 0x5 SHL DUP6 ADD ADD CALLDATALOAD PUSH0 MSTORE PUSH1 0x7 PUSH1 0x20 MSTORE PUSH1 0x40 PUSH0 KECCAK256 PUSH1 0x1 PUSH1 0xFF PUSH1 0x6 DUP4 ADD SLOAD PUSH1 0x80 SHR AND PUSH2 0xC8B DUP2 PUSH2 0x1698 JUMP JUMPDEST SUB PUSH2 0x26F JUMPI PUSH1 0x3 DUP2 ADD SLOAD CALLER PUSH1 0x1 PUSH1 0x1 PUSH1 0xA0 SHL SUB SWAP1 SWAP2 AND SUB PUSH2 0x26F JUMPI PUSH1 0x4 ADD SLOAD PUSH1 0x80 SHR DUP2 ADD DUP1 SWAP2 GT PUSH2 0xCC1 JUMPI PUSH1 0x1 SWAP1 SWAP6 ADD SWAP5 PUSH2 0xC58 JUMP JUMPDEST PUSH4 0x4E487B71 PUSH1 0xE0 SHL PUSH0 MSTORE PUSH1 0x11 PUSH1 0x4 MSTORE PUSH1 0x24 PUSH0 REVERT JUMPDEST DUP5 DUP3 PUSH0 MSTORE PUSH1 0x7 PUSH1 0x20 MSTORE PUSH1 0x40 PUSH0 KECCAK256 SWAP2 DUP2 ISZERO PUSH2 0xE41 JUMPI DUP5 CALLDATALOAD PUSH0 SWAP1 DUP2 MSTORE PUSH1 0x7 PUSH1 0x20 DUP2 SWAP1 MSTORE PUSH1 0x40 SWAP1 SWAP2 KECCAK256 PUSH1 0x1 SWAP1 DUP2 ADD SLOAD SWAP1 DUP6 ADD SSTORE DUP5 DUP5 SSTORE PUSH1 0x3 DUP5 ADD DUP1 SLOAD PUSH1 0x1 PUSH1 0x1 PUSH1 0xA0 SHL SUB NOT AND CALLER OR SWAP1 SSTORE PUSH1 0x4 DUP5 ADD DUP1 SLOAD PUSH1 0x1 PUSH1 0x1 PUSH1 0x80 SHL SUB NOT AND PUSH1 0x1 PUSH1 0x1 PUSH1 0x80 SHL SUB SWAP4 SWAP1 SWAP4 AND SWAP3 SWAP1 SWAP3 OR SWAP1 SWAP2 SSTORE PUSH1 0x6 DUP4 ADD DUP1 SLOAD PUSH1 0xFF PUSH1 0x80 SHL NOT AND PUSH1 0x1 PUSH1 0x80 SHL OR DUP2 SSTORE SWAP3 ADD SWAP4 PUSH9 0x10000000000000000 DUP3 GT PUSH2 0xE2D JUMPI DUP5 SLOAD DUP3 DUP7 SSTORE DUP1 DUP4 LT PUSH2 0xE07 JUMPI JUMPDEST POP SWAP4 PUSH0 MSTORE PUSH1 0x20 PUSH0 KECCAK256 PUSH0 JUMPDEST DUP3 DUP2 LT PUSH2 0xDF3 JUMPI DUP4 SLOAD PUSH8 0xFFFFFFFFFFFFFFFF NOT AND TIMESTAMP PUSH1 0x1 PUSH1 0x1 PUSH1 0x40 SHL SUB AND SWAP1 DUP2 OR DUP6 SSTORE DUP6 SWAP1 PUSH2 0xDAD SWAP1 DUP7 PUSH2 0x1842 JUMP JUMPDEST PUSH32 0x6D464C92F87943ECBD519A80912D55D03AA6BE625BD5EBC447151D4BEB2EB8CC PUSH1 0x20 PUSH1 0x40 MLOAD DUP4 DUP2 MSTORE LOG1 PUSH1 0x40 MLOAD PUSH1 0x4 DUP2 MSTORE PUSH0 MLOAD PUSH1 0x20 PUSH2 0x19AC PUSH0 CODECOPY PUSH0 MLOAD SWAP1 PUSH0 MSTORE PUSH1 0x20 CALLER SWAP3 LOG3 STOP JUMPDEST PUSH1 0x1 SWAP1 PUSH1 0x20 DUP8 CALLDATALOAD SWAP8 ADD SWAP7 DUP2 DUP5 ADD SSTORE ADD PUSH2 0xD7E JUMP JUMPDEST DUP6 PUSH0 MSTORE DUP3 PUSH1 0x20 PUSH0 KECCAK256 SWAP2 DUP3 ADD SWAP2 ADD JUMPDEST DUP2 DUP2 LT PUSH2 0xE22 JUMPI POP PUSH2 0xD74 JUMP JUMPDEST PUSH0 DUP2 SSTORE PUSH1 0x1 ADD PUSH2 0xE15 JUMP JUMPDEST PUSH4 0x4E487B71 PUSH1 0xE0 SHL PUSH0 MSTORE PUSH1 0x41 PUSH1 0x4 MSTORE PUSH1 0x24 PUSH0 REVERT JUMPDEST PUSH4 0x4E487B71 PUSH1 0xE0 SHL PUSH0 MSTORE PUSH1 0x32 PUSH1 0x4 MSTORE PUSH1 0x24 PUSH0 REVERT JUMPDEST CALLVALUE PUSH2 0x26F JUMPI PUSH1 0x20 CALLDATASIZE PUSH1 0x3 NOT ADD SLT PUSH2 0x26F JUMPI PUSH1 0x4 CALLDATALOAD PUSH1 0x1 PUSH1 0x1 PUSH1 0xA0 SHL SUB DUP2 AND SWAP1 DUP2 SWAP1 SUB PUSH2 0x26F JUMPI PUSH0 MSTORE PUSH1 0x2 PUSH1 0x20 MSTORE PUSH1 0x20 PUSH1 0xFF PUSH1 0x40 PUSH0 KECCAK256 SLOAD AND PUSH1 0x40 MLOAD SWAP1 ISZERO ISZERO DUP2 MSTORE RETURN JUMPDEST CALLVALUE PUSH2 0x26F JUMPI PUSH1 0x20 CALLDATASIZE PUSH1 0x3 NOT ADD SLT PUSH2 0x26F JUMPI PUSH1 0x4 CALLDATALOAD PUSH1 0x1 PUSH1 0x1 PUSH1 0xA0 SHL SUB DUP2 AND SWAP1 DUP2 SWAP1 SUB PUSH2 0x26F JUMPI PUSH1 0x80 PUSH0 MLOAD PUSH1 0x20 PUSH2 0x19CC PUSH0 CODECOPY PUSH0 MLOAD SWAP1 PUSH0 MSTORE SWAP2 PUSH2 0xEE1 PUSH1 0x1 DUP1 PUSH1 0xA0 SHL SUB PUSH0 SLOAD AND CALLER EQ PUSH2 0x16A2 JUMP JUMPDEST DUP1 PUSH0 MSTORE PUSH1 0x2 PUSH1 0x20 MSTORE PUSH1 0x40 PUSH0 KECCAK256 PUSH1 0x1 PUSH1 0xFF NOT DUP3 SLOAD AND OR SWAP1 SSTORE PUSH1 0x40 MLOAD SWAP1 PUSH1 0x40 DUP3 MSTORE PUSH1 0x9 PUSH1 0x40 DUP4 ADD MSTORE PUSH9 0x282927A1A2A9A9A7A9 PUSH1 0xB9 SHL PUSH1 0x60 DUP4 ADD MSTORE PUSH1 0x20 DUP3 ADD MSTORE LOG1 STOP JUMPDEST CALLVALUE PUSH2 0x26F JUMPI PUSH1 0x20 CALLDATASIZE PUSH1 0x3 NOT ADD SLT PUSH2 0x26F JUMPI PUSH1 0x4 CALLDATALOAD PUSH1 0x1 PUSH1 0x1 PUSH1 0xA0 SHL SUB DUP2 AND SWAP1 DUP2 SWAP1 SUB PUSH2 0x26F JUMPI PUSH2 0xF5B PUSH1 0x1 DUP1 PUSH1 0xA0 SHL SUB PUSH0 SLOAD AND CALLER EQ PUSH2 0x16A2 JUMP JUMPDEST PUSH0 SWAP1 DUP2 MSTORE PUSH1 0x2 PUSH1 0x20 MSTORE PUSH1 0x40 SWAP1 KECCAK256 DUP1 SLOAD PUSH1 0xFF NOT AND SWAP1 SSTORE STOP JUMPDEST CALLVALUE PUSH2 0x26F JUMPI PUSH2 0xF80 CALLDATASIZE PUSH2 0x1682 JUMP JUMPDEST CALLER PUSH0 MSTORE PUSH1 0x2 PUSH1 0x20 MSTORE PUSH2 0xF98 PUSH1 0xFF PUSH1 0x40 PUSH0 KECCAK256 SLOAD AND PUSH2 0x17CC JUMP JUMPDEST PUSH2 0xFA1 DUP3 PUSH2 0x186A JUMP JUMPDEST SWAP1 PUSH2 0xFAB DUP3 PUSH2 0x18BF JUMP JUMPDEST PUSH1 0x3 DUP3 ADD SLOAD CALLER PUSH1 0x1 PUSH1 0x1 PUSH1 0xA0 SHL SUB SWAP1 SWAP2 AND SUB PUSH2 0x26F JUMPI PUSH2 0x100A PUSH1 0x1 PUSH1 0x1 PUSH1 0x80 SHL SUB PUSH1 0x6 DUP5 ADD SWAP3 PUSH2 0xFEB PUSH1 0xFF DUP6 SLOAD PUSH1 0x80 SHR AND PUSH2 0xFE5 DUP2 PUSH2 0x1698 JUMP JUMPDEST ISZERO PUSH2 0x16DB JUMP JUMPDEST AND PUSH1 0x4 DUP5 ADD SWAP1 PUSH1 0x1 PUSH1 0x1 PUSH1 0x80 SHL SUB DUP3 SLOAD SWAP2 DUP2 NOT SWAP1 PUSH1 0x80 SHL AND SWAP2 AND OR SWAP1 SSTORE JUMP JUMPDEST DUP1 SLOAD PUSH1 0xFF PUSH1 0x80 SHL NOT AND PUSH1 0x1 PUSH1 0x80 SHL OR DUP2 SSTORE PUSH2 0x102F SWAP1 TIMESTAMP PUSH1 0x1 PUSH1 0x1 PUSH1 0x40 SHL SUB AND SWAP1 PUSH2 0x1842 JUMP JUMPDEST SLOAD PUSH1 0x40 MLOAD PUSH1 0x20 DUP2 PUSH1 0x1 PUSH32 0x365A3D0A71BE5F440C8224437355D5BD81A703759BF906E441902272BFBAFCB3 SWAP4 MSTORE LOG2 PUSH1 0x40 MLOAD PUSH1 0x1 DUP2 MSTORE PUSH0 MLOAD PUSH1 0x20 PUSH2 0x19AC PUSH0 CODECOPY PUSH0 MLOAD SWAP1 PUSH0 MSTORE PUSH1 0x20 CALLER SWAP3 LOG3 STOP JUMPDEST CALLVALUE PUSH2 0x26F JUMPI PUSH1 0x20 CALLDATASIZE PUSH1 0x3 NOT ADD SLT PUSH2 0x26F JUMPI PUSH1 0x4 CALLDATALOAD PUSH1 0x1 PUSH1 0x1 PUSH1 0xA0 SHL SUB DUP2 AND SWAP1 DUP2 SWAP1 SUB PUSH2 0x26F JUMPI PUSH2 0x10B2 PUSH1 0x1 DUP1 PUSH1 0xA0 SHL SUB PUSH0 SLOAD AND CALLER EQ PUSH2 0x16A2 JUMP JUMPDEST PUSH0 SWAP1 DUP2 MSTORE PUSH1 0x4 PUSH1 0x20 MSTORE PUSH1 0x40 SWAP1 KECCAK256 DUP1 SLOAD PUSH1 0xFF NOT AND SWAP1 SSTORE STOP JUMPDEST PUSH1 0x20 CALLDATASIZE PUSH1 0x3 NOT ADD SLT PUSH2 0x26F JUMPI PUSH1 0x4 CALLDATALOAD PUSH2 0x10E1 DUP2 PUSH2 0x186A JUMP JUMPDEST PUSH2 0x10EA DUP2 PUSH2 0x18BF JUMP JUMPDEST PUSH1 0x5 DUP2 ADD SWAP1 PUSH1 0x1 PUSH1 0x1 PUSH1 0x80 SHL SUB DUP3 SLOAD AND CALLVALUE LT PUSH2 0x1185 JUMPI PUSH1 0x3 ADD DUP1 SLOAD PUSH1 0x1 PUSH1 0x1 PUSH1 0xA0 SHL SUB NOT DUP2 AND CALLER OR SWAP1 SWAP2 SSTORE DUP2 SLOAD PUSH1 0x1 PUSH1 0x1 PUSH1 0xA0 SHL SUB SWAP2 SWAP1 SWAP2 AND SWAP2 SWAP1 PUSH1 0x80 SHR CALLVALUE PUSH1 0x1 PUSH1 0x1 PUSH1 0x80 SHL SUB SWAP1 DUP2 AND SWAP2 SWAP1 SWAP2 ADD SWAP1 DUP2 GT PUSH2 0xCC1 JUMPI DUP2 SLOAD PUSH1 0x1 PUSH1 0x1 PUSH1 0x80 SHL SUB AND PUSH1 0x80 SWAP2 SWAP1 SWAP2 SHL PUSH1 0x1 PUSH1 0x1 PUSH1 0x80 SHL SUB NOT AND OR SWAP1 SSTORE CALLER SWAP2 PUSH32 0x16B85F49BF01212961345D3016C9A531894ACCF62EB7680F2045D79185CC0EC0 PUSH0 DUP1 LOG4 STOP JUMPDEST PUSH1 0x40 MLOAD PUSH3 0x461BCD PUSH1 0xE5 SHL DUP2 MSTORE PUSH1 0x20 PUSH1 0x4 DUP3 ADD MSTORE PUSH1 0x14 PUSH1 0x24 DUP3 ADD MSTORE PUSH20 0x125394D551919250D251539517D4105653515395 PUSH1 0x62 SHL PUSH1 0x44 DUP3 ADD MSTORE PUSH1 0x64 SWAP1 REVERT JUMPDEST CALLVALUE PUSH2 0x26F JUMPI PUSH1 0x20 CALLDATASIZE PUSH1 0x3 NOT ADD SLT PUSH2 0x26F JUMPI PUSH1 0x4 CALLDATALOAD PUSH1 0x1 PUSH1 0x1 PUSH1 0xA0 SHL SUB DUP2 AND SWAP1 DUP2 SWAP1 SUB PUSH2 0x26F JUMPI PUSH1 0x80 PUSH0 MLOAD PUSH1 0x20 PUSH2 0x19CC PUSH0 CODECOPY PUSH0 MLOAD SWAP1 PUSH0 MSTORE SWAP2 PUSH2 0x120C PUSH1 0x1 DUP1 PUSH1 0xA0 SHL SUB PUSH0 SLOAD AND CALLER EQ PUSH2 0x16A2 JUMP JUMPDEST DUP1 PUSH0 MSTORE PUSH1 0x3 PUSH1 0x20 MSTORE PUSH1 0x40 PUSH0 KECCAK256 PUSH1 0x1 PUSH1 0xFF NOT DUP3 SLOAD AND OR SWAP1 SSTORE PUSH1 0x40 MLOAD SWAP1 PUSH1 0x40 DUP3 MSTORE PUSH1 0xB PUSH1 0x40 DUP4 ADD MSTORE PUSH11 0x2224A9AA2924A12AAA27A9 PUSH1 0xA9 SHL PUSH1 0x60 DUP4 ADD MSTORE PUSH1 0x20 DUP3 ADD MSTORE LOG1 STOP JUMPDEST CALLVALUE PUSH2 0x26F JUMPI PUSH1 0x20 CALLDATASIZE PUSH1 0x3 NOT ADD SLT PUSH2 0x26F JUMPI PUSH1 0x4 CALLDATALOAD PUSH1 0x1 PUSH1 0x1 PUSH1 0xA0 SHL SUB DUP2 AND SWAP1 DUP2 SWAP1 SUB PUSH2 0x26F JUMPI PUSH1 0x80 PUSH0 MLOAD PUSH1 0x20 PUSH2 0x19CC PUSH0 CODECOPY PUSH0 MLOAD SWAP1 PUSH0 MSTORE SWAP2 PUSH2 0x1299 PUSH1 0x1 DUP1 PUSH1 0xA0 SHL SUB PUSH0 SLOAD AND CALLER EQ PUSH2 0x16A2 JUMP JUMPDEST DUP1 PUSH0 MSTORE PUSH1 0x5 PUSH1 0x20 MSTORE PUSH1 0x40 PUSH0 KECCAK256 PUSH1 0x1 PUSH1 0xFF NOT DUP3 SLOAD AND OR SWAP1 SSTORE PUSH1 0x40 MLOAD SWAP1 PUSH1 0x40 DUP3 MSTORE PUSH1 0x9 PUSH1 0x40 DUP4 ADD MSTORE PUSH9 0x21A2A92A24A324A2A9 PUSH1 0xB9 SHL PUSH1 0x60 DUP4 ADD MSTORE PUSH1 0x20 DUP3 ADD MSTORE LOG1 STOP JUMPDEST CALLVALUE PUSH2 0x26F JUMPI PUSH1 0x20 CALLDATASIZE PUSH1 0x3 NOT ADD SLT PUSH2 0x26F JUMPI PUSH1 0x4 CALLDATALOAD PUSH1 0x1 PUSH1 0x1 PUSH1 0xA0 SHL SUB DUP2 AND SWAP1 DUP2 SWAP1 SUB PUSH2 0x26F JUMPI PUSH0 MSTORE PUSH1 0x5 PUSH1 0x20 MSTORE PUSH1 0x20 PUSH1 0xFF PUSH1 0x40 PUSH0 KECCAK256 SLOAD AND PUSH1 0x40 MLOAD SWAP1 ISZERO ISZERO DUP2 MSTORE RETURN JUMPDEST CALLVALUE PUSH2 0x26F JUMPI PUSH2 0x1328 CALLDATASIZE PUSH2 0x1668 JUMP JUMPDEST SWAP2 CALLER PUSH0 MSTORE PUSH1 0x5 PUSH1 0x20 MSTORE PUSH2 0x1341 PUSH1 0xFF PUSH1 0x40 PUSH0 KECCAK256 SLOAD AND PUSH2 0x178F JUMP JUMPDEST PUSH1 0x40 MLOAD SWAP3 PUSH1 0x60 DUP5 ADD DUP5 DUP2 LT PUSH1 0x1 PUSH1 0x1 PUSH1 0x40 SHL SUB DUP3 GT OR PUSH2 0xE2D JUMPI PUSH32 0xF701AE1187F8E5102B12EF0F9D1B46BF1E52C6E83AFE3B3C7DA130BC9AE0DDD6 SWAP5 PUSH1 0x20 SWAP5 PUSH1 0x2 SWAP3 PUSH1 0x40 MSTORE DUP2 MSTORE DUP5 DUP2 ADD SWAP3 DUP4 MSTORE PUSH1 0x40 DUP2 ADD SWAP3 PUSH1 0x1 DUP5 MSTORE DUP5 PUSH0 MSTORE PUSH1 0x6 DUP7 MSTORE PUSH1 0x40 PUSH0 KECCAK256 SWAP2 MLOAD DUP3 SSTORE MLOAD PUSH1 0x1 DUP3 ADD SSTORE ADD SWAP1 MLOAD ISZERO ISZERO PUSH1 0xFF DUP1 NOT DUP4 SLOAD AND SWAP2 AND OR SWAP1 SSTORE PUSH1 0x40 MLOAD SWAP1 DUP2 MSTORE LOG1 STOP JUMPDEST CALLVALUE PUSH2 0x26F JUMPI PUSH2 0x13D4 CALLDATASIZE PUSH2 0x1668 JUMP JUMPDEST SWAP2 CALLER PUSH0 MSTORE PUSH1 0x5 PUSH1 0x20 MSTORE PUSH2 0x13ED PUSH1 0xFF PUSH1 0x40 PUSH0 KECCAK256 SLOAD AND PUSH2 0x178F JUMP JUMPDEST PUSH0 MSTORE PUSH1 0x6 PUSH1 0x20 MSTORE PUSH1 0x40 PUSH0 KECCAK256 PUSH1 0xFF PUSH1 0x2 DUP3 ADD SLOAD AND ISZERO PUSH2 0x140E JUMPI SWAP1 DUP2 SSTORE PUSH1 0x1 ADD SSTORE STOP JUMPDEST PUSH1 0x40 MLOAD PUSH3 0x461BCD PUSH1 0xE5 SHL DUP2 MSTORE PUSH1 0x20 PUSH1 0x4 DUP3 ADD MSTORE PUSH1 0xD PUSH1 0x24 DUP3 ADD MSTORE PUSH13 0x1393D517D0D154951251925151 PUSH1 0x9A SHL PUSH1 0x44 DUP3 ADD MSTORE PUSH1 0x64 SWAP1 REVERT JUMPDEST CALLVALUE PUSH2 0x26F JUMPI PUSH1 0x20 CALLDATASIZE PUSH1 0x3 NOT ADD SLT PUSH2 0x26F JUMPI PUSH1 0x4 CALLDATALOAD PUSH1 0x1 PUSH1 0x1 PUSH1 0xA0 SHL SUB DUP2 AND SWAP1 DUP2 SWAP1 SUB PUSH2 0x26F JUMPI PUSH0 MSTORE PUSH1 0x1 PUSH1 0x20 MSTORE PUSH1 0x20 PUSH1 0xFF PUSH1 0x40 PUSH0 KECCAK256 SLOAD AND PUSH1 0x40 MLOAD SWAP1 ISZERO ISZERO DUP2 MSTORE RETURN JUMPDEST CALLVALUE PUSH2 0x26F JUMPI PUSH1 0x20 CALLDATASIZE PUSH1 0x3 NOT ADD SLT PUSH2 0x26F JUMPI PUSH2 0x14A9 PUSH1 0x1 DUP1 PUSH1 0xA0 SHL SUB PUSH0 SLOAD AND CALLER EQ PUSH2 0x16A2 JUMP JUMPDEST PUSH2 0x14B4 PUSH1 0x4 CALLDATALOAD PUSH2 0x186A JUMP JUMPDEST PUSH1 0xFF PUSH1 0x6 DUP3 ADD SLOAD PUSH1 0x90 SHR AND PUSH2 0x26F JUMPI PUSH0 DUP1 DUP1 DUP4 PUSH1 0x5 DUP3 SWAP6 ADD SWAP1 DUP2 SLOAD PUSH1 0x80 SHR SWAP2 PUSH1 0x1 PUSH1 0x1 PUSH1 0x80 SHL SUB DUP2 SLOAD AND SWAP1 SSTORE PUSH1 0x2 PUSH1 0x1 DUP1 PUSH1 0xA0 SHL SUB SWAP2 ADD SLOAD AND GAS CALL PUSH2 0x14F7 PUSH2 0x1751 JUMP JUMPDEST POP ISZERO PUSH2 0x26F JUMPI STOP JUMPDEST CALLVALUE PUSH2 0x26F JUMPI PUSH1 0x20 CALLDATASIZE PUSH1 0x3 NOT ADD SLT PUSH2 0x26F JUMPI PUSH2 0x151B PUSH1 0x4 CALLDATALOAD PUSH2 0x186A JUMP JUMPDEST PUSH1 0x3 DUP2 ADD SLOAD PUSH1 0x1 PUSH1 0x1 PUSH1 0xA0 SHL SUB AND CALLER SUB PUSH2 0x26F JUMPI PUSH1 0x2 PUSH1 0xFF PUSH1 0x6 PUSH2 0x1548 SWAP4 ADD SLOAD PUSH1 0x80 SHR AND PUSH2 0x1DC DUP2 PUSH2 0x1698 JUMP JUMPDEST STOP JUMPDEST CALLVALUE PUSH2 0x26F JUMPI PUSH1 0x20 CALLDATASIZE PUSH1 0x3 NOT ADD SLT PUSH2 0x26F JUMPI PUSH1 0x4 CALLDATALOAD PUSH1 0x1 PUSH1 0x1 PUSH1 0xA0 SHL SUB DUP2 AND SWAP1 DUP2 SWAP1 SUB PUSH2 0x26F JUMPI PUSH1 0x80 PUSH0 MLOAD PUSH1 0x20 PUSH2 0x19CC PUSH0 CODECOPY PUSH0 MLOAD SWAP1 PUSH0 MSTORE SWAP2 PUSH2 0x1595 PUSH1 0x1 DUP1 PUSH1 0xA0 SHL SUB PUSH0 SLOAD AND CALLER EQ PUSH2 0x16A2 JUMP JUMPDEST DUP1 PUSH0 MSTORE PUSH1 0x4 PUSH1 0x20 MSTORE PUSH1 0x40 PUSH0 KECCAK256 PUSH1 0x1 PUSH1 0xFF NOT DUP3 SLOAD AND OR SWAP1 SSTORE PUSH1 0x40 MLOAD SWAP1 PUSH1 0x40 DUP3 MSTORE PUSH1 0x8 PUSH1 0x40 DUP4 ADD MSTORE PUSH8 0x2922AA20A4A622A9 PUSH1 0xC1 SHL PUSH1 0x60 DUP4 ADD MSTORE PUSH1 0x20 DUP3 ADD MSTORE LOG1 STOP JUMPDEST CALLVALUE PUSH2 0x26F JUMPI PUSH1 0x20 CALLDATASIZE PUSH1 0x3 NOT ADD SLT PUSH2 0x26F JUMPI PUSH1 0x4 CALLDATALOAD PUSH1 0x1 PUSH1 0x1 PUSH1 0xA0 SHL SUB DUP2 AND SWAP1 DUP2 SWAP1 SUB PUSH2 0x26F JUMPI PUSH2 0x160E PUSH1 0x1 DUP1 PUSH1 0xA0 SHL SUB PUSH0 SLOAD AND CALLER EQ PUSH2 0x16A2 JUMP JUMPDEST PUSH0 SWAP1 DUP2 MSTORE PUSH1 0x3 PUSH1 0x20 MSTORE PUSH1 0x40 SWAP1 KECCAK256 DUP1 SLOAD PUSH1 0xFF NOT AND SWAP1 SSTORE STOP JUMPDEST CALLVALUE PUSH2 0x26F JUMPI PUSH1 0x20 CALLDATASIZE PUSH1 0x3 NOT ADD SLT PUSH2 0x26F JUMPI PUSH1 0x60 SWAP1 PUSH1 0x4 CALLDATALOAD PUSH0 MSTORE PUSH1 0x6 PUSH1 0x20 MSTORE PUSH1 0x40 PUSH0 KECCAK256 DUP1 SLOAD SWAP1 PUSH1 0xFF PUSH1 0x2 PUSH1 0x1 DUP4 ADD SLOAD SWAP3 ADD SLOAD AND SWAP2 DUP4 MSTORE PUSH1 0x20 DUP4 ADD MSTORE ISZERO ISZERO PUSH1 0x40 DUP3 ADD MSTORE RETURN JUMPDEST PUSH1 0x60 SWAP1 PUSH1 0x3 NOT ADD SLT PUSH2 0x26F JUMPI PUSH1 0x4 CALLDATALOAD SWAP1 PUSH1 0x24 CALLDATALOAD SWAP1 PUSH1 0x44 CALLDATALOAD SWAP1 JUMP JUMPDEST PUSH1 0x40 SWAP1 PUSH1 0x3 NOT ADD SLT PUSH2 0x26F JUMPI PUSH1 0x4 CALLDATALOAD SWAP1 PUSH1 0x24 CALLDATALOAD SWAP1 JUMP JUMPDEST PUSH1 0x5 GT ISZERO PUSH2 0x25B JUMPI JUMP JUMPDEST ISZERO PUSH2 0x16A9 JUMPI JUMP JUMPDEST PUSH1 0x40 MLOAD PUSH3 0x461BCD PUSH1 0xE5 SHL DUP2 MSTORE PUSH1 0x20 PUSH1 0x4 DUP3 ADD MSTORE PUSH1 0xA PUSH1 0x24 DUP3 ADD MSTORE PUSH10 0x27A7262CAFA0A226A4A7 PUSH1 0xB1 SHL PUSH1 0x44 DUP3 ADD MSTORE PUSH1 0x64 SWAP1 REVERT JUMPDEST ISZERO PUSH2 0x16E2 JUMPI JUMP JUMPDEST PUSH1 0x40 MLOAD PUSH3 0x461BCD PUSH1 0xE5 SHL DUP2 MSTORE PUSH1 0x20 PUSH1 0x4 DUP3 ADD MSTORE PUSH1 0xA PUSH1 0x24 DUP3 ADD MSTORE PUSH10 0x4241445F535441545553 PUSH1 0xB0 SHL PUSH1 0x44 DUP3 ADD MSTORE PUSH1 0x64 SWAP1 REVERT JUMPDEST PUSH2 0x1C0 DUP2 ADD SWAP1 DUP2 LT PUSH1 0x1 PUSH1 0x1 PUSH1 0x40 SHL SUB DUP3 GT OR PUSH2 0xE2D JUMPI PUSH1 0x40 MSTORE JUMP JUMPDEST SWAP1 PUSH1 0x1F DUP1 NOT SWAP2 ADD AND DUP2 ADD SWAP1 DUP2 LT PUSH1 0x1 PUSH1 0x1 PUSH1 0x40 SHL SUB DUP3 GT OR PUSH2 0xE2D JUMPI PUSH1 0x40 MSTORE JUMP JUMPDEST RETURNDATASIZE ISZERO PUSH2 0x178A JUMPI RETURNDATASIZE SWAP1 PUSH1 0x1 PUSH1 0x1 PUSH1 0x40 SHL SUB DUP3 GT PUSH2 0xE2D JUMPI PUSH1 0x40 MLOAD SWAP2 PUSH2 0x177F PUSH1 0x1F DUP3 ADD PUSH1 0x1F NOT AND PUSH1 0x20 ADD DUP5 PUSH2 0x1730 JUMP JUMPDEST DUP3 MSTORE RETURNDATASIZE PUSH0 PUSH1 0x20 DUP5 ADD RETURNDATACOPY JUMP JUMPDEST PUSH1 0x60 SWAP1 JUMP JUMPDEST ISZERO PUSH2 0x1796 JUMPI JUMP JUMPDEST PUSH1 0x40 MLOAD PUSH3 0x461BCD PUSH1 0xE5 SHL DUP2 MSTORE PUSH1 0x20 PUSH1 0x4 DUP3 ADD MSTORE PUSH1 0xE PUSH1 0x24 DUP3 ADD MSTORE PUSH14 0x27A7262CAFA1A2A92A24A324A2A9 PUSH1 0x91 SHL PUSH1 0x44 DUP3 ADD MSTORE PUSH1 0x64 SWAP1 REVERT JUMPDEST ISZERO PUSH2 0x17D3 JUMPI JUMP JUMPDEST PUSH1 0x40 MLOAD PUSH3 0x461BCD PUSH1 0xE5 SHL DUP2 MSTORE PUSH1 0x20 PUSH1 0x4 DUP3 ADD MSTORE PUSH1 0xE PUSH1 0x24 DUP3 ADD MSTORE PUSH14 0x27A7262CAFA82927A1A2A9A9A7A9 PUSH1 0x91 SHL PUSH1 0x44 DUP3 ADD MSTORE PUSH1 0x64 SWAP1 REVERT JUMPDEST ISZERO PUSH2 0x1810 JUMPI JUMP JUMPDEST PUSH1 0x40 MLOAD PUSH3 0x461BCD PUSH1 0xE5 SHL DUP2 MSTORE PUSH1 0x20 PUSH1 0x4 DUP3 ADD MSTORE PUSH1 0xA PUSH1 0x24 DUP3 ADD MSTORE PUSH10 0x4C4F545F455849535453 PUSH1 0xB0 SHL PUSH1 0x44 DUP3 ADD MSTORE PUSH1 0x64 SWAP1 REVERT JUMPDEST SWAP1 PUSH8 0xFFFFFFFFFFFFFFFF PUSH1 0x40 SHL DUP3 SLOAD SWAP2 PUSH1 0x40 SHL AND SWAP1 PUSH8 0xFFFFFFFFFFFFFFFF PUSH1 0x40 SHL NOT AND OR SWAP1 SSTORE JUMP JUMPDEST DUP1 PUSH0 MSTORE PUSH1 0x7 PUSH1 0x20 MSTORE PUSH1 0x40 PUSH0 KECCAK256 SLOAD ISZERO PUSH2 0x188A JUMPI PUSH0 MSTORE PUSH1 0x7 PUSH1 0x20 MSTORE PUSH1 0x40 PUSH0 KECCAK256 SWAP1 JUMP JUMPDEST PUSH1 0x40 MLOAD PUSH3 0x461BCD PUSH1 0xE5 SHL DUP2 MSTORE PUSH1 0x20 PUSH1 0x4 DUP3 ADD MSTORE PUSH1 0xD PUSH1 0x24 DUP3 ADD MSTORE PUSH13 0x1313D517D393D517D193D55391 PUSH1 0x9A SHL PUSH1 0x44 DUP3 ADD MSTORE PUSH1 0x64 SWAP1 REVERT JUMPDEST PUSH1 0x6 ADD SLOAD PUSH1 0x88 SHR PUSH1 0xFF AND PUSH2 0x18CF JUMPI JUMP JUMPDEST PUSH1 0x40 MLOAD PUSH3 0x461BCD PUSH1 0xE5 SHL DUP2 MSTORE PUSH1 0x20 PUSH1 0x4 DUP3 ADD MSTORE PUSH1 0xB PUSH1 0x24 DUP3 ADD MSTORE PUSH11 0x1313D517D1931051D1D151 PUSH1 0xAA SHL PUSH1 0x44 DUP3 ADD MSTORE PUSH1 0x64 SWAP1 REVERT JUMPDEST PUSH1 0x6 DUP2 ADD DUP1 SLOAD SWAP1 PUSH1 0xFF DUP3 PUSH1 0x90 SHR AND DUP1 ISZERO PUSH2 0x199C JUMPI JUMPDEST PUSH2 0x1997 JUMPI PUSH1 0x5 DUP4 ADD SLOAD PUSH1 0x80 SHR SWAP2 PUSH1 0x1 PUSH1 0x90 SHL SWAP1 PUSH1 0xFF PUSH1 0x90 SHL NOT AND OR SWAP1 SSTORE PUSH1 0x2 DUP3 ADD SWAP2 PUSH0 DUP1 DUP1 DUP1 DUP6 PUSH1 0x1 DUP1 PUSH1 0xA0 SHL SUB DUP9 SLOAD AND GAS CALL PUSH2 0x1952 PUSH2 0x1751 JUMP JUMPDEST POP ISZERO PUSH2 0x26F JUMPI SLOAD SWAP2 SLOAD PUSH1 0x40 DUP1 MLOAD SWAP3 DUP4 MSTORE PUSH1 0x1 PUSH1 0x1 PUSH1 0xA0 SHL SUB SWAP1 SWAP2 AND PUSH1 0x20 DUP4 ADD MSTORE PUSH32 0xB398EC266CAE176BD0A8D43B35200DA0BB13C5620AD5E1663ABDC3967A4EE50F SWAP2 LOG2 JUMP JUMPDEST POP POP POP JUMP JUMPDEST POP PUSH1 0x5 DUP4 ADD SLOAD PUSH1 0x80 SHR ISZERO PUSH2 0x1917 JUMP INVALID 0xC8 PUSH5 0x4C2EF950CE SWAP12 PC 0xC7 RETURN 0xBF LT EXTCODECOPY 0xDA 0xBD PUSH26 0xC55DC27F03686FF878C0C33F36FCFA606C98545793C0DF614E4A SMOD LOG4 SWAP3 PUSH17 0x302C92A296BCDBCF571AAAE6655540AF99 LOG2 PUSH5 0x6970667358 0x22 SLT KECCAK256 DUP11 0xCD PUSH23 0xD54FD3B26B132BE420BD13738F89CDFD6DC3BDC4A63B20 TIMESTAMP 0xD3 0xD0 0x4D SWAP16 0xC3 PUSH5 0x736F6C6343 STOP ADDMOD SHR STOP CALLER "},"methodIdentifiers":{"admin()":"f851a440","buyLot(uint256)":"74e3e3dc","certifiers(address)":"5d42b2b9","certifyFarm(bytes32,bytes32,uint256)":"514a88ab","confirmReceived(uint256)":"27dac36d","createLot(uint256,bytes32,uint256)":"c009d80b","distributors(address)":"cc642784","farmers(address)":"401b2168","farms(bytes32)":"10f908bd","flagLot(uint256)":"b233a679","getLot(uint256)":"ab995d12","grantCertifier(address)":"60376528","grantDistributor(address)":"63ca21d7","grantFarmer(address)":"c208bdf8","grantProcessor(address)":"95809737","grantRetailer(address)":"25c99191","lots(uint256)":"f1648e84","markShipped(uint256)":"eed90d6b","markSold(uint256)":"fed0abc8","mergeLots(uint256,uint256[])":"98330bb2","processLot(uint256,uint256)":"7a9b62ba","processors(address)":"965e064a","recallLot(uint256)":"e7862353","refundEscrow(uint256)":"356f9dfd","retailers(address)":"9a268f35","revokeDistributor(address)":"120b93d3","revokeFarmer(address)":"c2b0513a","revokeProcessor(address)":"8b017a24","revokeRetailer(address)":"782eb934","setPrice(uint256,uint256)":"f7d97577","updateFarmCertification(bytes32,bytes32,uint256)":"4968441b"}}}}}